:020000022000DC
:106000000000012061F00200A1F00200A3F00200F4
:10601000A5F00200A7F00200A9F0020000000000B5
:10602000000000000000000000000000D12A030072
:10603000ADF0020000000000F12A0300B1F0020000
:10604000B3F00200B3F00200BD2403000597020084
:10605000B3F00200B3F00200B3F00200B3F00200AC
:10606000B3F00200B3F00200B3F00200B3F002009C
:10607000B3F00200B3F00200B3F00200B3F002008C
:10608000B3F00200D9280300B3F00200B3F002001D
:10609000B3F00200B3F00200D18C0200B3F00200B2
:1060A000B3F00200B3F00200B3F00200B3F002005C
:1060B000B3F00200B3F00200000000000000000096
:1060C000B3F00200B3F00200B3F00200B3F002003C
:1060D000B3F00200B3F00200B3F0020000000000D1
:1060E00000000000000000000000000000000000B0
:1060F00000000000000000000000000000000000A0
:10610000000000000000000000000000000000008F
:10611000000000000000000000000000000000007F
:10612000000000000000000000000000000000006F
:10613000000000000000000000000000000000005F
:10614000000000000000000000000000000000004F
:10615000000000000000000000000000000000003F
:10616000000000000000000000000000000000002F
:10617000000000000000000000000000000000001F
:10618000000000000000000000000000000000000F
:1061900000000000000000000000000000000000FF
:1061A00000000000000000000000000000000000EF
:1061B00000000000000000000000000000000000DF
:1061C00000000000000000000000000000000000CF
:1061D00000000000000000000000000000000000BF
:1061E00000000000000000000000000000000000AF
:1061F000000000000000000000000000000000009F
:10620000F1EE103A43F08073E1EE103A704700BFB0
:1062100010B5054C237833B9044B13B10448AFF3E0
:1062200000800123237010BD5038002000000000C2
:10623000B46C030008B5034B1BB103490348AFF32B
:10624000008008BD0000000054380020B46C03003A
:10625000154B002B08BF134B9D46A3F5803A002138
:106260008B460F461348144A121A0DF0F6F90F4BDD
:10627000002B00D098470E4B002B00D098470020F1
:10628000002104000D000D48002802D00C48AFF397
:1062900000800DF069F9200029000BF0BDFC0DF025
:1062A0003DF900BF000008000000012000000000D0
:1062B0000000000050380020345C00200000000086
:1062C0000000000070B5014688B01D481D4C02F06A
:1062D000F7FC202506462A46684600210DF0BDF948
:1062E0002A466946304601F089FB204616490BF0E4
:1062F00005FD694620460BF081FD0021134801F0A1
:1063000005FA0021124801F001FA0021114801F0BC
:10631000FDF90021104801F0F9F900210F4801F0C2
:10632000F5F900210E4801F0F1F900210D4801F0C6
:10633000EDF900210C4801F0E9F908B070BD00BF8B
:10634000743C00205C5B002068630300CC380020B4
:106350001C3900206C390020BC3900200C3A002088
:106360005C3A0020AC3A0020FC3A002038B5084CDA
:106370000D46204607490BF0C1FC29462046102255
:106380000BF054FD20460449BDE838400BF036BD03
:106390005C5B0020786303009463030038B5084C0D
:1063A0000849154620460BF0A9FC294620460A223A
:1063B0000BF0B6FC20460449BDE838400BF01EBD8A
:1063C0005C5B002058630300A06303000000000032
:1063D0002DE9F84F00216E4802F0F2FF0121054639
:1063E0006B4802F0EDFF02210446694802F0E8FF25
:1063F00003218146664802F0E3FF0021804665489C
:1064000002F0DEFF01210746624802F0D9FF0221B7
:106410000646604802F0D4FF032182465D4802F040
:10642000CFFF834628B20CF033FD57A3D3E90023F6
:106430000CF098FD0CF0A8FF05B220B20CF028FD7E
:1064400051A3D3E900230CF08DFD0CF09DFF04B2A5
:106450000FFA89F00CF01CFD4BA3D3E900230CF0DC
:1064600081FD0CF091FF0FFA80F90FFA88F00CF023
:106470000FFD45A3D3E900230CF074FD0CF084FF5D
:106480000FFA80F838B20CF003FD3FA3D3E90023E4
:106490000CF068FD0CF078FF07B230B20CF0F8FC9D
:1064A00039A3D3E900230CF05DFD0CF06DFF06B2BB
:1064B0000FFA8AF00CF0ECFC33A3D3E900230CF0C4
:1064C00051FD0CF061FF0FFA80FA0FFA8BF00CF01F
:1064D000DFFC2DA3D3E900230CF044FD0CF054FFA6
:1064E0002AB2D317322AA4EB050573F10001A9EBF8
:1064F0000404BCBF00220023312DA8EB0909D8BF3A
:106500000025312CA7EB0808D8BF0024B9F1310FC2
:10651000A6EB0707D8BF4FF00009B8F1310FAAEB7F
:106520000606D8BF4FF0000800B2312FA0EB0A00DA
:10653000D8BF0027312E1849D8BF00263128AA46D7
:106540004FEAE57BD8BF0020E517C1E902ABC1E9FE
:106550000023CA464FEAE97B3A46FB17C1E90445E6
:106560004FEAE879F7170446C517C1E906ABC1E958
:106570000889C1E90A23C1E90C67C1E90E45BDE8F4
:10658000F88F00BFAFF3008073B7EC8EA9FA074015
:106590006C38002074380020503B002070B511206A
:1065A0002DED048B08F0BCFE584802F06DFB10B9CD
:1065B000BDEC048B70BD00215548564D9FED568AA9
:1065C00001F0A4F80021554801F0A0F8002154483A
:1065D00001F09CF80021534801F098F8002152483E
:1065E00001F094F80021514801F090F80021504842
:1065F00001F08CF800214F4801F088F800214E4846
:1066000001F084F800214D4801F080F83F4C00264D
:1066100003E008F04FFD64281CD8204602F034FB4C
:106620000028C5D008F046FDB0F57A7FF1D908F012
:1066300041FDD5E900230021A0F57A708B4208BF07
:106640008242E6D208F036FDC5E9000608F032FDC8
:106650006428E2D93A4E08F02DFDD6E90023002146
:1066600064388B4208BF8242D1D208F023FD002358
:10667000C6E90003FFF7ACFE022008F031FD09EE89
:10668000100A032008F02CFDB8EEC99A08EE900A13
:1066900069EE087AF8EEE88A17EE900A0CF0B0FE80
:1066A000284E294C68EE887AC6E9000117EE900A58
:1066B0000CF0A6FEC6E902012188154801F026F873
:1066C0002189164801F022F8218A154801F01EF8A8
:1066D000218B144801F01AF8218C134801F016F8A8
:1066E000218D124801F012F8218E114801F00EF8A8
:1066F000218F104801F00AF831880F4801F006F8A0
:1067000031890E4801F002F880E700BF743C002098
:10671000CC380020983B0020A3C23F3D1C3900200C
:106720006C390020BC3900200C3A00205C3A002073
:10673000AC3A0020FC3A0020A03B0020F03B0020B7
:10674000903B0020403C0020503B00202DE9F041D0
:1067500082B06C4620464FF6F07101F065FEDFF81E
:10676000C0816148614D624E624F94E8060001F0BD
:1067700041FE20464FF6F17101F056FE94E8060006
:10678000404600F02FFF2A46314640460CF08EFE70
:1067900020464FF6F27101F047FE94E806003846B5
:1067A00000F020FFDFF87C812A46314638460CF0A5
:1067B0007DFE20464FF6F37101F036FE94E80600A8
:1067C000404600F00FFF4C4F2A46314640460CF041
:1067D0006DFE20464FF6F47101F026FE94E80600A7
:1067E000384600F0FFFEDFF840812A463146384641
:1067F0000CF05CFE20464FF6F57101F015FE94E8B2
:106800000600404600F0EEFE3C4F2A463146404628
:106810000CF04CFE20464FF6F67101F005FE94E8B0
:106820000600384600F0DEFEDFF800812A463146D9
:1068300038460CF03BFE20464FF6F77101F0F4FDB0
:1068400094E80600404600F0CDFE2D4F2A46314622
:1068500040460CF02BFE20464FF6F87101F0E4FDA7
:1068600094E80600384600F0BDFEDFF8C4802A46F2
:10687000314638460CF01AFE20464FF6017101F001
:10688000D3FD94E80600404600F0ACFE1D4F2A46BA
:10689000314640460CF00AFE20464FF6027101F0E8
:1068A000C3FD94E80600384600F09CFE2A463146B7
:1068B00038460CF0FBFD48211348144C02F070FDE3
:1068C0004921134802F06CFD124802F057FA2046A5
:1068D00011490BF041FE2A46204610490CF0E6FD16
:1068E00002B0BDE8F08100BF7C38002000360020F7
:1068F0008D7102001C390020BC3900205C3A002058
:10690000FC3A0020F03B00206C380020503C002076
:10691000743800208C380020A06303005526030043
:10692000CC3800206C3900200C3A0020AC3A002012
:10693000A03B0020F8B5854D8548864C864E874F94
:1069400001F03AFD2846022100F09CFE2846002274
:10695000112100F0ADFE2846022100F097FE012231
:106960002146284600F0AAFE284600F017FC2846DB
:10697000002100F0CBFE3046022100F083FE3046BD
:106980000022112100F094FE3046022100F07EFE2C
:1069900001222146304600F091FE714D304600F054
:1069A000FDFB3046002100F0B1FE2846022100F038
:1069B00069FE28460022112100F07AFE28460221B5
:1069C00000F064FE01222146284600F077FE2846AA
:1069D00000F0E4FB2846002100F098FE3846022132
:1069E00000F050FE38460022112100F061FE3846CA
:1069F000022100F04BFE01222146384600F05EFEE7
:106A0000584D594E384600F0C9FB3846002100F079
:106A10007DFE2846022100F035FE28460022112185
:106A200000F046FE2846022100F030FE01222146F9
:106A3000284600F043FE284600F0B0FB284600211F
:106A400000F064FE3046022100F01CFE30460022B9
:106A5000112100F02DFE3046022100F017FE012228
:106A60002146304600F02AFE404D414F304600F0AE
:106A700095FB3046002100F049FE2846022100F037
:106A800001FE28460022112100F012FE28460221B4
:106A900000F0FCFD01222146284600F00FFE2846AA
:106AA00000F07CFB2846002100F030FE3846022131
:106AB00000F0E8FD38460022112100F0F9FD3846CB
:106AC000022100F0E3FD01222146384600F0F6FDE8
:106AD000284E294D384600F061FB3846002100F071
:106AE00015FE3046022100F0CDFD30460022112176
:106AF00000F0DEFD3046022100F0C8FD01222146F3
:106B0000304600F0DBFD304600F048FB3046002107
:106B100000F0FCFD2846022100F0B4FD28460022CA
:106B2000112100F0C5FD2846022100F0AFFD2146ED
:106B30002846012200F0C2FD284600F02FFB28461F
:106B40000021BDE8F84000F0E1BD00BFCC380020D6
:106B50007C3800209D6302001C390020BC390020D5
:106B60006C3900200C3A00205C3A0020AC3A00203E
:106B7000FC3A0020A03B0020F03B002030B54C4CFC
:106B80008BB04FF4E13120460BF0AAFA94F8A33011
:106B900033B90A2008F09AFA94F8A330002BF8D001
:106BA000444D4548454C0022012101F0ABFE2B68C5
:106BB0008DF80030236842488DF8013069460BF0AB
:106BC0007BFD2968102201A80BF014FD01A907A87C
:106BD0000BF0E8FC1022216804A80BF00BFD04A9BF
:106BE00007A80BF099FD014635480BF03BFD04A8C2
:106BF0000BF030FD07A80BF02DFD01A80BF02AFDCE
:106C000007A830490BF0A8FC07A82D490BF084FD1C
:106C1000014604A80BF0C6FC07A80BF01BFD049965
:106C2000254801F0E3FF2849284801F063FA284984
:106C3000264801F061FA0B222649274802F0D8F8CD
:106C400015222649244802F0CFF8234802F0D4F850
:106C5000234917480BF0D2F8FFF76CFE06212148B4
:106C600000F0DEF81F4800F0C3F81F491D4800F08F
:106C700081F81C4800F08EF801211A4800F004F950
:106C8000F4222021174800F0FBF81E21154800F0DF
:106C9000F5F80021134800F053F9144802F08AFB7C
:106CA000134802F087FB04A80BF0D4FC0BB030BDF6
:106CB0005C5B002060000010743C00206400001049
:106CC000503C0020A4630300C5620200243F002062
:106CD0006D630200A86303008C380020B4630300D6
:106CE000CC630300743E00207C3800206C38002008
:106CF0007438002072DF704773DF704777DF7047AA
:106D000070B5054608460C4601F094FB102808D0E3
:106D1000802812D1636883B1EA7F0D2A0FDD00203D
:106D200070BDEB7F22881B2BF9DCE9180320E854A7
:106D300048704A80EB7F0433EB77012070BDA918BF
:106D40001120A85407224A7098681E685C68DB68A6
:106D5000C1F80E30C1F80A00C1F80260C1F806405F
:106D6000EB7F1233EB770120DAE700BF0022C27716
:106D70000270704700B50831024603C983B06B4604
:106D800083E8030019461046FFF7BAFF03B05DF829
:106D900004FB00BFF0B589B00546202269461348C0
:106DA00001F038FFEB7FC2181D2A0ADDC3F11D0474
:106DB000E4B2E2181D2A4FF0000615DD304609B096
:106DC000F0BD044601260927EA18601CE85469460C
:106DD0005770901C22460CF01CFCEB7F02331C44C5
:106DE0003046EC7709B0F0BD0827EDE7743C002091
:106DF00010B50446094801F021FFE37F1C2B0ADC93
:106E0000E2180221E1540A2390705370E37F0333A8
:106E1000E377012010BD002010BD00BF743C0020AE
:106E2000C27F1C2A0DDC10B403469C180220985423
:106E30000120A1706070DA7F0332DA775DF8044BCD
:106E400070470020704700BF30B440F2FF12094C79
:106E5000094902840125002280F82250C0E90A4134
:106E6000C277027080F823204262C0E90C2282635C
:106E700030BC70472000F40020001E00C185704720
:106E8000428501858185704780F82210704700BFD8
:106E9000F0B502EB8203264E87B003EB83030F4667
:106EA0009B00154631680022CDE90272ADF80C3026
:106EB00090F8213000928DF80030CB070446019203
:106EC000CDE9042209D41B4A1B4BD17FC07F998195
:106ED00001211C609A60988031606A46164904F16D
:106EE0002000FFF707FF10B1002007B0F0BD1348E6
:106EF00094F8206001F0A2FE314602460120FFF71F
:106F0000FDFE0028F0D1012194F82000FFF7F4FEE7
:106F10000028E9D1094801F0EBFE638EA7859D4268
:106F200094BF5B1BDB1A0120638684F82300DCE737
:106F30005C3C0020B03E0020603C0020743C0020FF
:106F4000F0B52C4D4186044687B001862846FA21CB
:106F500001F078FEE68D2849278D0868029706EB38
:106F6000860303EB830300229B000392ADF80C30F1
:106F700094F8213000928DF80030C3070192CDE9DA
:106F800004220BD41D4BE27F95F85B029A8005F535
:106F90000F7501221C609D6098810A606A4617493E
:106FA00004F12000FFF7A6FE10B1002007B0F0BDED
:106FB000104894F8205001F041FE29460246012075
:106FC000FFF79CFE0028F0D1012194F82000FFF784
:106FD00093FE0028E9D1074801F08AFE638EA78559
:106FE0009E4294BF9B1BDB1A0120638684F823001A
:106FF000DCE700BF743C00205C3C0020603C0020CB
:1070000030B50B888D88112B85B004462CD0262BEB
:107010000FD0102B01D005B030BDCB7B012BFAD1A6
:10702000426A03FA05F515430023456280F82330D0
:10703000F1E70B7A012BEED1002380F823304FF4D7
:10704000FA71274801F0FEFD238E002B30D0658EAB
:10705000002D36D0A36B0BB19847658E618D2A4603
:107060002046FFF715FFD6E7436AEB40DB07D2D592
:107070001C4801F023F80028CDD1636A94F823104E
:10708000012202FA05F523EA050363620029C2D151
:1070900094F82230002BBED0238E6386FA2110484C
:1070A00001F0D0FDE28D218D2046FFF7F1FEB2E721
:1070B000A36B03B198470022618D2046FFF7E8FEDD
:1070C000A9E7074801F028FE626B002AA3D004ABB1
:1070D0000095294643F8045D28460AF099FC9AE792
:1070E000743C0020243F002075DF704710B44FF03F
:1070F00010144FF448010022C0E90041C0E9022207
:107100005DF8044B704700BF014800F0F1BD00BFBF
:10711000443F0020F8B500240B4F2546A1B2384665
:1071200001F0CEFD0134064648B100F05DFC30B1FF
:10713000304600F05DFC022804BF0135EDB2142C8E
:10714000ECD12846F8BD00BF743C00200B881F2BF3
:1071500012D110B50A4682B052F8080F8C885168D7
:107160006B4603C32046BDF80030ADF802306946D7
:10717000FFF7BAFF02B010BD704700BFAADF70472B
:10718000ABDF7047ACDF7047B0DF7047704700BFC0
:1071900010B504460AF088FD204610BD70B55E4B60
:1071A00004461B680361061D96B0304601F050F995
:1071B00094F8263013F0320208BF84F8272013F029
:1071C0000C0208BF84F8282013F0300358D10FAD0B
:1071D0000F93C5E90133C5E9033394F8262094F8E9
:1071E0002700AB618DF83C2001224FF0000162F3D3
:1071F0004201A26914930023ADF808308DF80A10FB
:107200008DF808000AB1137873BBA37F13B104F1A2
:107210001E03129394F82930E289059613F0010FAA
:107220004FF000030CBF10461846CDF81E3029461B
:10723000ADF81C00ADF8223018466569ADF8202085
:1072400004F12A0304F1270605AA06960995FFF71B
:1072500095FF034628B9627F72BB257B002D53D072
:107260000023184616B070BD104610920DF09FF81E
:1072700002AB80B2ADF84400ADF846001393C4E70A
:1072800000231A46012060F3420224498DF80620AB
:107290000FAD097894F8270094F826200F938DF805
:1072A0000410C5E90133C5E90333AB618DF805006E
:1072B0008DF83C2001AB97E71849ADF80C00024669
:1072C000012502234E6894F82710049665F34202C4
:1072D00003AD8DF80E200B958DF80C100DEB03020D
:1072E00004AE04F11C050AA9CDF83200ADF8303027
:1072F000ADF83430ADF836000A960E95FFF740FF32
:1073000003460028A9D0ACE72146054800F096FEC8
:107310002B46184616B070BD703C0020F863030081
:10732000743C00202DE9F0410B888E88502B8AB0E8
:107330000C46054609D0512B04D18B79012B42D044
:10734000022B17D00AB0BDE8F081CB88428D9A425B
:1073500026D0EA8D9A42F5D1EB6C002BF2D095F84D
:107360003C20648A920700F19D80224629463046DF
:107370009847E7E7A27B042A5DD0062A32D0012A8B
:10738000E0D16B6C002BDDD095F83C20170704F1A1
:10739000080400F1CA802246294630469847D1E7C2
:1073A000876C002FD5D090F83C30B1F810C001F1B7
:1073B0001208D90700F195806346424629463046B7
:1073C000B847E388C5E7036C002BBBD090F83C209E
:1073D000520701F1080775D43A46294630469847C6
:1073E000A379ADE76A6B002AACD0002202A930462F
:1073F000CDE90222CDE904228DF80830FFF7C4FE62
:10740000AC6C64B195F83C306F6BB5F83AC0D807F6
:1074100000F19E8063463A4630462946A0476C6B91
:1074200009F07EFD012820467CD00AF0A5F8002353
:10743000C5E90D3386E7686B002865D0218A628A2A
:107440002F8F002301EB020CCDE90633CDE9083381
:10745000BC454FF002038DF8183008DD40F20913E7
:10746000ADF81C3006A93046FFF78EFE6AE79DF89E
:107470001E30ADF8201004F1140743F00103084456
:107480003946ADF822208DF81E3009970CF0C1F86E
:10749000638A228A698F1A4493B28B4238BF0B46A3
:1074A0006B87DFE7032000211A46009006AB0846F1
:1074B000CDE9066508940AF0ABFA00287FF442AFE4
:1074C000EB6C52E703211A46009106AB08213846BF
:1074D000CDE9066508970AF09BFA002880D12B6C4D
:1074E0007AE7042300933A46614606AB4046CDE96D
:1074F0000665CDE9088C0AF08BFA00287FF461AFAD
:10750000AF6CB4F810C057E74FF480672F8709F0CD
:1075100007FD0128384618D00AF01CF800236863DC
:107520006B878BE70CF04CF881E703211A4600913A
:1075300006AB0E212046CDE9066508940AF068FAEC
:1075400000287FF4FFAE6B6C25E70CF031F8E5E71F
:107550000423009322463846614606ABCDE9066512
:107560000897CDF824C00AF053FA00287FF457AFEB
:10757000AC6C6F6BB5F83AC04CE700BF30B4174B3A
:10758000174D1A7880F8282001244FF0010164F388
:10759000420180F82720142400220560C48180F86D
:1075A000291082718280826080F83C20027302611F
:1075B00082618283C0F81E20C0F8222080F8262035
:1075C0004261428582850286C285C0E90D22C0E9FA
:1075D0001022C0E9122230BC704700BFF8630300DC
:1075E0000864030070B483B06D4685E80600044665
:1075F000194944F8041B034695E80300174E84E834
:107600000500317883F82810012214204FF001057D
:1076100062F34205D8810022184683F8295083F886
:10762000271083F83C201A731A619A619A83C3F871
:107630001E20C3F8222083F826205A615A859A8595
:107640001A86DA85C3E90D22C3E91022C3E91222A2
:1076500003B070BC704700BF08640300F863030008
:1076600010B483B06B4683E80600041D93E8030062
:1076700084E8050003B05DF8044B704701230373F1
:10768000704700BF80F82610704700BF39B990F8E6
:107690002930012262F3000380F82930704790F806
:1076A0002930C181002262F3000380F8293070473D
:1076B00080F8271080F82820704700BF90F83C30F1
:1076C000C16462F3410380F83C30704751F82A2FBF
:1076D00002604A684260704710B5C48982B0944223
:1076E00028BF144601910023418DADF800406A4641
:1076F0004FF6FF70ADF80230FFF744FD18B9BDF842
:10770000000002B010BD184602B010BD30B5C489EB
:1077100085B0022C28BF0224ADF806100023418D4D
:10772000ADF808400DF1060502AA4FF6FF70ADF85E
:107730000A300395FFF726FD18B9BDF8080005B01B
:1077400030BD184605B030BDA1DF7047A3DF7047DC
:10775000A4DF704700238382704700BF806900F078
:10776000DDB800BF808A70472DE9F0410B88CE88D4
:10777000382B86B00C46054642D0392B25D0362B07
:1077800002D006B0BDE8F081806900F0C7F801467C
:10779000614801F095FA00F02DF905F11C08074643
:1077A0006EB9E28904F11001404601F0EBFB2B8D2C
:1077B0002BB1033FBFB2E389013FBB4270DA4046C1
:1077C00001F0F8FB06B0BDE8F0810B7B012B57D030
:1077D000022BD6D1036B002BD3D090F83420B1F814
:1077E0000480CE89920701F1100700F184803246AF
:1077F00039462846984761894046FFF7A9FFC0E708
:1078000000F11C07002E35D10A8A3846314601F0B6
:10781000B9FB94F80C80B8F1010F2BD0B8F1040F2C
:10782000AFD1A86900F07AF801463B4801F048FA68
:1078300000F0E0F82B8D053880B2834228BF034664
:10784000002B37D0218AE289A869AC8AADF80C6098
:107850000A44696A05918DF80C80ADF81230ADF8D4
:107860001020ADF80E4000F059F803A9FFF76EFFA5
:10787000002886D0384601F09DFB06B0BDE8F081B7
:10788000C36A002B3FF47DAF90F83420CE8901F11C
:107890001007D1071ED4324639462846984770E76C
:1078A000A86900F03BF86A8DA98AFFF74DFF002810
:1078B00085D166E740F20511AA8AA869ADF80C10D7
:1078C000CDE90433ADF80E2000F028F803A9FFF746
:1078D0003DFFCFE703201A460090314603AB384600
:1078E000CDE9035705960AF093F800287FF449AFD5
:1078F000E689EB6ACFE703201A460090314603ABD6
:107900003846CDE9035705960AF082F800287FF43F
:1079100072AF2B6BE6896AE7743C00208088704761
:107920007FDF704786DF70478FDF704790DF7047DB
:10793000B1DF7047B5DF704710B5074B03600446F1
:10794000C06908F0F7FB206A08F0F4FB606A08B130
:1079500008F0F0FB204610BD2064030010B5094B71
:1079600003600446C06908F0E5FB206A08F0E2FB0A
:10797000606A08B108F0DEFB20460AF095F920465F
:1079800010BD00BF20640300F8B5044681800025C7
:107990000121144F217417261B2021732760E680D4
:1079A000608125811068C4F8130090889679667606
:1079B000A4F81700D2796273194618469DF818602A
:1079C00007F05AFD3146E061304607F055FDC4E945
:1079D0000A554FF6FF73206265746562A574E381F2
:1079E0002046F8BD20640300007C7047407C70474F
:1079F000407B7047C0887047008970472DE9F0418F
:107A000086B004AC868890460F4620464FF4285135
:107A100000F00AFDCDE900784FF6FF75012094E8EB
:107A20000C003146CDE90205024800F0B9F906B074
:107A3000BDE8F081743C0020C2898188407B01F060
:107A4000F7BA00BF70B50B88113B96B00C460546DF
:107A5000462B78D8DFE813F08500880047008B00BC
:107A60007700770077007700A200B10077007700F9
:107A70007700770077007700BD00C500CB00D1000C
:107A8000770077007700770077007700770077003E
:107A9000770077007700770077007700770077002E
:107AA00077007700770077007700D4007700D70061
:107AB000770077007700770077007700770077000E
:107AC00077007700770077007700770077007700FE
:107AD00077007700770077007700E700EE00770007
:107AE000F4007900020109F01BFA01284FF0500060
:107AF00000F0DF8009F02EFDE86220B35022002163
:107B00000BF0ABFD4FF6FF737049EB816C7BEB6ABA
:107B10000868097902936A46012C11714FF000043C
:107B200003F11C0103F13803009006910793A88824
:107B3000059418BF2246214602ABCDE90344CDE9A6
:107B40000844FFF7EDFE16B070BD8B79002BFAD11B
:107B5000406AAB740028F6D01A46194607F0BEFCFE
:107B6000F1E700230374EEE74B890381EBE7502232
:107B7000002102A80BF071FD02AA218A687B01F0A6
:107B800071FA034600287AD0002302A910AAA88817
:107B9000FFF7C8FEBDF81A30EB81D4E70B7AC46A50
:107BA000002B7BD009F0BCF90128204600F084802E
:107BB00009F0E2FC0023EB62C5E70B7A112B64D1DC
:107BC000A86A0028BFD000231A46194607F086FC91
:107BD000B9E716A9002321F8503D8088FFF7A4FEDD
:107BE000B1E70B7A002BAED14B7A0373ABE70022DF
:107BF00011468088FFF79AFEA5E70B894381A2E72B
:107C00004B89C3809FE78B7A002B9CD000260023F2
:107C10001A461946286A07F061FC0136A37AF6B2C3
:107C2000B342F4D88FE700231A4619468088FFF73D
:107C30007FFE88E7406A0123AB740028C3D182E746
:107C4000417B234801F034F8E188814228BF014696
:107C500089B2E980A888FFF76DFE74E78B79002B65
:107C60003FF471AF002600231A461946E86907F071
:107C700035FC0136A379F6B2B342F4D863E7A8889D
:107C80001A461946FFF74EFE5DE7C2898188407BA0
:107C900001F018FA98B101236B7491E70123437442
:107CA000638AC38122468188407B01F0AFF9EC6A88
:107CB00078E70BF07DFC1FE70BF082FC7AE70346C8
:107CC00002460146A888FFF733FEE4E7733F002031
:107CD000743C002010B50446043001F0FBF8034B5F
:107CE000236000232375204610BD00BF0100FFFF65
:107CF000017D01B1704710B50446043001F0F4F87D
:107D00000123237510BD00BF007D704710B50B889F
:107D1000322B18D0332B0CD0302B00D010BDCB8899
:107D2000041D0BB94B89FBB92046BDE8104001F09A
:107D300041B9CB88041D002BF6D14A89002AF3D023
:107D400002EB420208E0CB88041D002BECD14A89EB
:107D5000002AE9D002EB82025200023292B20A31CA
:107D6000204601F00FF9DFE70A310A22204601F030
:107D700009F9D9E7A0DF704738B50446F82500F5C2
:107D8000F87001F0A7F82A46204600210BF065FCA8
:107D90002A46601900210BF060FC204638BD00BF68
:107DA0002DE9F04385B00546BDF83800BDF83C40EC
:107DB000ADF80C006F461B48ADF80E4087E80C008C
:107DC0008846BDF8349000F07BFF05F5F87506464F
:107DD00004E03046FFF710FE07F078F9284601F07E
:107DE000CFF804460028F4D10121284601F07CF8A0
:107DF0004A460C99284601F091F83946404603AAB4
:107E0000FFF7B8FF38B94FF4FA71284601F08CF843
:107E100020EAE074A4B2284601F070F8204605B0CC
:107E2000BDE8F083743C00202DE9F04F8F880E8868
:107E300085B08846054639467F4800F041FFA6F1E7
:107E40001003012B814640F28B8095F854203AB301
:107E5000002404F11603502E55F823A059D0512EBA
:107E60001AD198F80630B8F808B0022B43D0BBF10D
:107E7000000F11D051466846FFF728FCBDF80030CE
:107E80005B4549D0514602A8FFF720FCBDF80C30F5
:107E90005B4541D095F854200134E4B29442D8D3E4
:107EA00095F84C31002B00F0C38005F5A67900242D
:107EB00004E095F84C310134A34246DD59F8040F33
:107EC000FFF74CFCB842F4D1382E03D0392E01D044
:107ED000362EEED1B8F80AA0BAF1000FE9D0D9F8E1
:107EE00000B05846FFF73EFC5045E2D158464146A7
:107EF000FFF73AFCDDE798F80E30062BB7D1DAF839
:107F000000305046DB68414698474846FFF76EFD13
:107F1000C0E7B8F806B0AAE7DAF8003050464146A4
:107F2000DB6898474846FFF761FD0028B2D0502E25
:107F3000B0D1514602A8FFF7C9FBBDF80C305B4534
:107F4000A8D14846FFF778FDA4E7112E2AD0352E98
:107F500003D1B8F80A30002B5BD105B0BDE8F08F33
:107F60002B78002B3FF471AF112E4FF000040CD092
:107F700005EB84033946586803685B689847013409
:107F80002B78E4B2A342F3D85FE705EB84033946CC
:107F9000586803681B68984701342B78E4B2A34201
:107FA000F3D852E7002473B105EB8406D6F85001EC
:107FB000FFF7D4FBB84204F101031FD095F84C2120
:107FC000DCB2A242F0D895F8F8100029C5D0002400
:107FD00005EB8403621CD3F8FC008388BB4203D00A
:107FE000D4B28C42F4D3B8E703681B6898470134D5
:107FF00095F8F810E4B28C42EAD3AEE7D6F8500117
:10800000FFF7A8FB013495F84C31E4B2A342CBD87A
:10801000D9E705F5F8752846B8F80C2008F11001E5
:1080200000F0B0FF284605B0BDE8F04F00F0C2BF39
:10803000112E8CD1C7E700BF743C002090F854305B
:10804000272B0CD810B4024603F11604013380F834
:108050005430012042F824105DF8044B7047002092
:10806000704700BF0378132B06D800EB830201335F
:1080700003700120516070470020704775DF704722
:1080800078DF70477ADF7047054A034692E80300BD
:10809000002283E80300C3E902221846704700BFAC
:1080A0002864030008B5FFF7EDFF08B1002008BD04
:1080B000FFF7E6FFB0FA80F0400908BDF8B50024EC
:1080C0000B4F2546A1B2384600F0FAFD01340646B2
:1080D00048B1FFF789FC30B13046FFF789FC012831
:1080E00004BF0135EDB2142CECD12846F8BD00BF19
:1080F000743C002081607047C16070470A88102A74
:1081000003D1CA7B012A0B4600D0704710B40A8AFB
:1081100001884488914201D8A24205D901465DF800
:10812000044B9888FFF7AABF5DF8044B704700BF67
:108130008ADF704730B403461F220124186280256D
:10814000828480F82D4000220B4C80F82E50C0E92C
:1081500011228262C0F8464080F82C2080F82F203F
:10816000028680F838204263C0E90F22C264A0F87A
:10817000502030BC704700BFA00050002DE9F047F0
:108180008CB06F4638460C4687E80C0000F052F978
:10819000C0B210282ED0019F07220623D4F818A0C1
:1081A00094F81C808DF80D208DF80C30C6084FF027
:1081B00000091F22002104A80BF04FFAB8F1010FAB
:1081C00006D8B9F1000F34D000200CB0BDE8F0871C
:1081D00003AB514613F809C043460A784878D443A4
:1081E000604502F10105234407D013F0FF03294441
:1081F000F3D1E6E703220223D0E7013A0231D5B2F8
:10820000DFD02A4604A80BF004FA002DD9D004AC24
:1082100002E012F0FF05D4D03246204639460BF07A
:10822000E9F93444AA1B0028F3D101200CB0BDE8C1
:10823000F0874FF00109BCE7F0B50B888E88103B42
:1082400085B00C4605460D2B2CD8DFE803F07007EF
:108250002B2B2B2B2B2B2B2B2B5B2B2D836AF340C8
:10826000DB071FD55048FEF755FFD8B9AB6A95F824
:108270002C20012404FA06F623EA0606AE628AB927
:1082800095F82D3073B11F232D62AB8405F12001C9
:1082900005F14400FFF74CFF20B9444800F028FDE9
:1082A00085F82C4005B0F0BD90F92E2091F91B30D7
:1082B0009A4220DC90F8383001F108079BB1002683
:1082C00002E0D6B2B3420CD96B6B03EBC6030CCB06
:1082D00039462846FFF752FF721C95F838300028BF
:1082E000EFD09E4207D095F82F30002B38D094F86D
:1082F0002430012B41D805F120010020FFF718FFA1
:1083000005B0F0BD0B7A012BCCD1002480F82C40B5
:10831000264800F001FD2A6C002AC3D004AB00946B
:10832000214643F8044D204609F072FBBAE7CB7BA7
:10833000022BB7D10122836A02FA06F633430022E8
:10834000836280F82C20ADE70139CCB2911CD2D0E9
:10835000022C20D95388ADF80C302A8E9A42CAD10B
:10836000EA6B002A9ED004AB012143F8047D384615
:108370000091242109F04CFB94E7226A117850788F
:10838000CC43FF2801F101062344DDD013F0FF03A5
:108390003244F3D1AFE7224603A80BF03AF9002CA0
:1083A000A9D0BDF80C30D8E7343F0020743C002041
:1083B000A8DF7047704700BF30B500F1080483B0F4
:1083C0000546204600F044F821460DF10602012042
:1083D000FFF7EEFF044628B9044B05481D60294607
:1083E000FFF740FE204603B030BD00BF703C0020C8
:1083F000743C002030B482B06C4684E8060003462A
:10840000064943F8081B054694E80300002183E869
:1084100005002846A98002B030BC704738640300CC
:1084200062DF704763DF70470122002301808270A2
:10843000436070478378012B08D042680AB18020DE
:108440007047012B8CBF80200020704710207047A0
:1084500008B5837873B9436863B10246911C184626
:10846000FFF7DEFF10205168FFF7DCFFB0FA80F065
:10847000400908BD012008BD4BDF704710DF704781
:108480007CDF70477DDF704760DF704769DF7047D2
:1084900061DF704766DF704767DF7047704700BF76
:1084A000132006F03DBF00BF30B5154C154D83B00D
:1084B0004FF0FF31D4F8080307F090FC0028F7D004
:1084C00095B101A8FFF7D8FF0528F1D00028F8D111
:1084D0000198831E012BF4D806F04CFD01A8FFF78C
:1084E000CBFF0528F2D1E3E701A8FFF7C5FF052878
:1084F000DED001A8FFF7C0FF0528F5D1D8E700BFFF
:10850000743C002075EF02002DE9F04F89B008F0AF
:1085100007FD01284FF4FA7000F0848109F01AF881
:108520000646B34C06F1080304F5587704F5007AC3
:1085300003934FF0FF31D4F8040307F04FFC0028F9
:10854000F7D04FF4FA730DF116013046ADF816303E
:10855000FFF79EFF10B10528EBD0F2E7B6F80490C4
:10856000B9F1130F00F2208104EB8903D3F81453FF
:108570001DB131462846FFF765FA3388013B1B2BB6
:108580005BD8DFE813F0A3005A005A005A005A00E3
:108590005A005A005A005A005A005A005A005A000B
:1085A0005A005A00A8001C005A005A005A005A00EB
:1085B0005A005A005A005A005A005A00FE00DFF8CA
:1085C00044824FF0000B58F8043F184633B1FFF7D0
:1085D0000BFA18B10BF1010B5FFA8BFB4745F2D197
:1085E000BBF1000F06D194F810331BB1594613208C
:1085F00006F084FE2846FFF7FBF9012800F0F18021
:10860000D4F8CC2262B10223CDF81890002196F85C
:1086100008C00093084606ABCDF81CC009F0F8F975
:1086200009F1C40804EB8803586810B103685B685B
:10863000984704EB880300225A6031465046FEF703
:10864000DFFC31466B48FFF7F7FDB4F812334B45BA
:10865000338800F0AB80102B1ED02DB32846FFF7D7
:10866000C7F9012803D131466348FFF747FD284683
:10867000FFF7BEF902281BD06048FFF745FB00BB9F
:1086800031465B48FFF7D0FBD4F86833002B3FF44A
:1086900058AF3046984754E7F37B012BDDD1B388C0
:1086A000A4F81233002DD9D131465348FFF726FDE7
:1086B00053483146FEF74AFD5048FFF725FB002896
:1086C000DED031464D48FFF721FBD9E7002148466F
:1086D000FFF7E0FEB1E74FF00008D4F80C03CDF847
:1086E0000080434642460321464D08F0FBFE55F804
:1086F000043F184633B1FFF777F918B108F10108C4
:108700005FFA88F8BD42F2D194F81033002B58D1AB
:1087100009F1C40804EB8805686820B103685B6848
:10872000984700236B60F37B012B0BBF94F8F33267
:1087300094F8F93294F8F2B294F8F8B20293302037
:1087400009F0A2FA029B0093039A5B46494605464C
:10875000FFF71AF904EB880328465D60FFF748F934
:10876000012851D0D4F8C822002A3FF466AF012373
:1087700000210093084606ABCDF8189009F048F99F
:108780005BE7D4F86423002A3FF457AFCDF8189084
:108790000223002196F908C00093084606ABCDF8E5
:1087A0001CC009F035F948E70546E6E6102B3FF412
:1087B00073AF112B7FF451AF4FF6FF73A4F8123350
:1087C0004BE718F1000118BF0121132006F096FDB8
:1087D00094F81033002B9BD00121132006F08EFD5E
:1087E00096E7D4F8BC22002A7FF40DAF18E700BF4B
:1087F000743C0020D03E0020243F0020443F002055
:10880000343F0020843F0020D4F8B822002A3FF4EF
:1088100014AF0021009006AB0846CDF8189009F07F
:10882000F7F80AE70AF0C4FE06467AE638B50446C9
:10883000FFF7A2FA04F50070FEF706FB04F50F70CF
:10884000FEF794FA04F51770FFF774FC04F52C702A
:10885000FFF71AFC04F53070FEF748FC04F534709D
:10886000FFF738FA4FF440630025C4F8E832224895
:108870002249234AC4F8EC0240F20113C4F8F01272
:10888000C4F8F422A4F8F832A4F8FA52A4F8FC527E
:10889000294604F5457050220AF0DFFEC4F8FF5265
:1088A00094F8FF3294F80223C4F80453032143F0F0
:1088B000010361F306130A4301204FF6FF71C4F868
:1088C0000853C4F80C5384F8FE52C4F86853C4F833
:1088D000645384F8100307251020A4F81213032111
:1088E00084F8010384F8FF3284F8005384F80223EB
:1088F00084F80313204638BD010A17000300010164
:1089000017000300F0B5AF4E8DB00CAB346943F8DF
:10891000244D0446184684F8FC1284F8FD22AA4926
:10892000FFF7ACFD18B1002528460DB0F0BDA74BF0
:10893000099094F8ED520493CDE90A001A4609A96A
:1089400001208DF82450FFF7A1FD0028EBD194F809
:10895000FD320B90CDE90900181C18BF012094F8D6
:10896000FC528DF82700049A8DF8263009A9402082
:108970008DF82550FFF78AFD0028D4D194F8EC1229
:108980000990034661F30003CDE90A00049A8DF8CB
:10899000243009A9A020FFF779FD0028C3D1D4F81D
:1089A000E8320A900B90049A099309A9A120FFF7D5
:1089B0006DFD0028B7D194F8FC32002B40F0B28056
:1089C00094F8FD32002B47D000230225B4F8F4724E
:1089D000049A099309A92320CDE90A338DF824507C
:1089E000ADF82670FFF752FD00289CD1CDE90900B3
:1089F00094F8FD72B4F8F6320B90049A8DF8245076
:108A000009A920208DF82670ADF82830FFF73EFD2B
:108A1000002888D1099094F8F832049A8DF82450EF
:108A2000CDE90A0009A922208DF82630FFF72EFD96
:108A300000287FF478AFCDE909000B9094F8F93263
:108A4000049A8DF8245009A921208DF82630FFF7CB
:108A50001DFD00287FF467AF04A8FFF715FD00286F
:108A60007FF461AFC3B2CDE9070043F0010307A96A
:108A700002208DF81C30FFF70FFD00287FF453AF64
:108A800004F52C70FFF70EFB054600283FF44BAFB2
:108A90000CA8337D00F8283D0B224D49FFF7F0FC70
:108AA00000287FF440AF94F8FD32002B40F0848022
:108AB00003220021012006F09DFCC4F804030028D5
:108AC0003FF431AF05AB0326CDE900634FF4A0625C
:108AD00000234049404807F0C5FC324600210120F0
:108AE00006F088FCC4F8080300283FF41CAF06AB6E
:108AF000CDE90063C82200233849394807F0B2FCA9
:108B00003849394A00234FF4800008600092184623
:108B100001224FF4807108F08DFCC4F80C0300F0C2
:108B200055FA01E709900123B4F8EE52049A8DF842
:108B30002430CDE90A0009A92320ADF82650FFF71B
:108B4000A5FC00287FF4EFAECDE9090094F8FC7293
:108B5000B4F8F0520B90049A8DF8243009A9202023
:108B60008DF82670ADF82850FFF790FC00287FF4B0
:108B7000DAAE099094F8F252049A8DF82430CDE9D7
:108B80000A0009A922208DF82650FFF77FFC002853
:108B90007FF4C9AECDE9090094F8F3520B90049A22
:108BA0008DF8243009A921208DF82650FFF76EFC9E
:108BB00000283FF405AFB6E604F53070FEF7A4FADE
:108BC00076E700BF446403009D8402000036002065
:108BD000686403007464030009850200786403007C
:108BE000A984020000E100E0A184020030B5084B36
:108BF00083B002AC1B7D04F8043D08460D460BF023
:108C0000D6FB294682B22046FFF73AFC03B030BDBE
:108C10004464030000B583B002AB084623F8022D7C
:108C20001946FFF72FFC20B99DF8060003B05DF848
:108C300004FB002003B05DF804FB00BF90F9FE02C6
:108C4000704700BF70B5054682B0D0F80C030C46E3
:108C500008F074FC0B4AA402A2FB0432002306466F
:108C60009209D5F80C030093042108F03BFC3EB9AF
:108C7000D5F80C03009633463246032108F032FC47
:108C800002B070BDD34D621070B500F5447400F5AC
:108C90005876002554F8043F184623B1FEF7A4FE89
:108CA00008B10135EDB2A642F4D1284670BD00BF2F
:108CB00001290CBFB0F8EE02B0F8F402704700BF13
:108CC00013299ABF00EB8100D0F8140300207047ED
:108CD00010B5064C0021D4F8080306F0C1FED4F804
:108CE00004030021BDE8104006F0BABE743C002029
:108CF00090F8103303B9704710B582B0D0F80C4328
:108D000007F090FD0023024600932046012108F061
:108D1000E9FB02B010BD00BFF0B583B000250746E7
:108D20002B46D0F80C0300952A46032108F0DAFB05
:108D300007F5447407F5587654F8041F084621B126
:108D4000FEF752FE08B10135EDB2B442F4D197F806
:108D500010330BB903B0F0BD291C18BF012113203B
:108D600003B0BDE8F04006F0C9BA00BF0148FFF704
:108D70005DBD00BF743C00200020704770B582B01C
:108D80006D46044641F60A012846FFF74DFB95E87B
:108D900006002046FFF72EFB20460F4B40F8103B05
:108DA000242200210AF059FC0C4E0D480D49606246
:108DB0000023A363636384F83C3010250622132349
:108DC0002046666184F8355084F83920A16284F821
:108DD0003A3002B070BD00BFF0640300B864030015
:108DE000CC640300D4640300416180F835207047EF
:108DF000816280F83A2070472DE9F04397B006462B
:108E0000FFF7DAFA8146002847D1B369002B51D029
:108E1000F369002B45D006F13404C4F5285808F155
:108E2000230806F1100506F13D072B6802A86BB375
:108E3000FEF7A4FB336B2A68E9469A4208EB04016B
:108E400089B2484608BF42F65021FFF7EDFA99E88B
:108E5000060002A8FEF704FC02A8FEF70FFC0221A0
:108E600002A8FEF70FFC217802A8FEF70FFC02A86B
:108E7000FEF794F9814602A8B9F1000F23D12278B8
:108E80002968FEF729FC02A8FEF780F90134BC42EC
:108E900005F10405C9D14FF00009484617B0BDE8F7
:108EA000F08308F043FE04460BF081FAF46186F883
:108EB0003700B0E708F07AFE04460BF078FAB461A8
:108EC00086F83600A4E7FEF761F9484617B0BDE81A
:108ED000F08300BF0022012142700170C0E901222D
:108EE000C2818281704700BF017001B1704710B527
:108EF00004460A2006F0C0FA606010BD037810B581
:108F0000044613B9406807F015F900230122637085
:108F1000C4E90133E381A381227010BD0023816085
:108F20008281C381704700BF037870B504460D4647
:108F3000B3B940681149AD02A1FB0531012389098C
:108F4000637006F04BFFB0B94FF0FF352378002671
:108F500066701BB1606807F0EDF86660284670BD6A
:108F600003220021012006F045FA60600028E1D1CB
:108F70004FF0FF35F2E7E589ADB2E7E7D34D621078
:108F80004078704770B586899642044635468068B9
:108F900028BF154621B12A460AF03BFBA068A689E6
:108FA000E3892B442844761B9BB2A060A681E38111
:108FB000284670BD406820B100231A46194606F0C5
:108FC0008DBA7047B1DF7047B2DF704708B50C4803
:108FD00005F076FE0B490A4800F084FC58B10A49B6
:108FE000074800F07FFC00B108BD07490448BDE810
:108FF000084000F093BC0349014800F08FFCEEE705
:109000009C400020346503004865030010B586B01D
:109010000323CDE9030114460093104603AB034A32
:109020000594502108F0F4FC06B010BDA99102008F
:109030004FF6FF739A4211D070B586B00D460323E8
:109040000021064614460093084603AB044A0396E3
:10905000CDE9045408F0DCFC06B070BD0020704778
:10906000A592020030B5144B144CA1B015460A4627
:1090700001280CBF2146194668460BF051F9694694
:1090800007A80F4B002200F0ADFD07A800F03EFF3F
:1090900018B90024204621B030BD044607A800F0CE
:1090A00041FD5028F5D10246294607A800F090FE60
:1090B00007A800F0E7FEEDE718650300FC64030075
:1090C0009C4000202DE9F0414FF6FF73A0B09A427A
:1090D00000AF5CD0314B0C463149012818BF19460E
:1090E00038460BF01DF9394607F11C002D4B0022C4
:1090F00000F078FD07F11C006D4600F007FF50B945
:10910000002407F11C0000F0BDFE2046AD4680376C
:10911000BD46BDE8F08107F11C0000F003FD061E0E
:1091200008DD07F11C0000F091FE311807F11C006A
:1091300000F06EFE07F11C0000F0F4FC061E08DDD6
:1091400007F11C0000F082FE311807F11C0000F04E
:109150005FFE07F11C0000F0E5FC0028D0DDC31D18
:1091600023F0070386B2E846ADEB030D69463246AD
:1091700007F11C0000F02CFE20466946324603230E
:10918000FFF720FFB0FA80F46409C546B9E7002470
:1091900020468037BD46BDE8F08100BF186503005A
:1091A000FC6403009C400020F0B51446ADB00128DB
:1091B00004AF0E4607BF528A35493649E28D38461C
:1091C0000BF0AEF8394634486D4600F08BFB78B9A9
:1091D000394607F13C00304B012200F003FD07F156
:1091E0003C0000F093FE40B9A437AD46BD46F0BD4B
:1091F0003946294800F0ECFBEAE7502107F13C0032
:1092000000F0BEFC5022214607F13C0000F0F8FBC4
:109210002022002107F11C000AF01FFA31461F48E6
:10922000FFF74EFD07F11C012022FEF7E7FB3B7F15
:10923000A3B994F8491094F84D3094F84E20039156
:1092400094F84A10029194F84B10019194F84C1044
:10925000009107F11C0012490BF062F807F11C00A5
:109260000BF0A5F8013084B2E1B207F13C0000F048
:1092700087FC07F11C01224607F13C0000F0C0FB0F
:1092800007F13C0000F0FEFDA437AD46BD46F0BD41
:10929000FC640300186503009C400020743C00201F
:1092A0005C6503002DE9F043A3B000AF07F188042B
:1092B000002324F8823D0D4680461946914603233B
:1092C00022462846FFF780FEFB886E4623B9B54646
:1092D0008C37BD46BDE8F0830733DB08A6EBC3033C
:1092E0009D462246284669460323FFF76DFE6D46DC
:1092F00004460028EBD1274B27494A46B8F1010F15
:1093000018BF194607F108000BF00AF807F1080129
:1093100007F12400214B012200F064FC07F1240036
:1093200000F0F4FD0028D2D0214607F1240000F01F
:109330006FFD07F1240000F0F5FB041E08DD07F1C6
:10934000240000F083FD211807F1240000F060FDE7
:1093500007F1240000F0E6FB041E08DD07F12400FD
:1093600000F074FD211807F1240000F051FDFC8885
:1093700007F12400E1B200F003FC2246294607F180
:10938000240000F03DFB07F1240000F07BFDB54612
:109390009EE700BF18650300FC6403009C400020AA
:1093A00010B40924002244700170828082705DF83C
:1093B000044B7047014800F0B1B800BFE03F002007
:1093C000032946D8022938B5838844D0032947D0D9
:1093D000012914BF43F4834343F4A34343F003033D
:1093E00004460178214843F4004500F02DF901219D
:1093F0001E4800F04BF8290A1C4800F047F8E9B273
:109400001A4800F043F8194800F028F9607805F090
:109410005DFE25781548294600F016F9002113480D
:1094200000F034F8114800F019F9294602220F48DB
:1094300000F0C0F80D4800F021F805460B4800F098
:109440001DF8C0B240EA0520A37880B2184180B26E
:1094500038BD0020704743F4C34343F00303BFE724
:1094600043F4E34343F00303BAE700BFE03F0020C7
:10947000704700BF203008F03DBD00BF203008F02D
:109480002BBD00BF203008F03BBD00BF38B5437F87
:109490000BB9002038BD00F1680420460D4608F0E5
:1094A00037FD0028F5D12046294608F003FD0120AC
:1094B00038BD00BF2DE9F0475AB30646DFF85880A3
:1094C00033681B684D1E434517464FF0000400F1FA
:1094D000680915F801AF16D1737F13B92046BDE8AE
:1094E000F087484608F014FD0028F7D15146484659
:1094F00008F0E0FC0134A742F0D0336815F801AF62
:109500001B684345E8D05146304698470028F1D1C2
:10951000E4E71446E2E700BF8D94020030B4827E97
:1095200022494FF0A04402F5E072012340F20C659D
:10953000C37644F82250427E02F5E07244F822508D
:1095400002694FF0CC74C2F8244502690624C2F8BF
:1095500000450269847EC2F808450269447EC2F86B
:109560000C4590F918205409603402F01F02934012
:1095700041F8243090F91830002B0FDB1944602398
:1095800081F8003390F91830084903F01F000122D8
:109590005B09824041F8232030BC7047044A03F045
:1095A0000F010A4460231376ECE700BF00E100E0FE
:1095B000FCEC00E00AB910467047F8B5054600F12A
:1095C0002007384614460E4608F082FC2B69C3F883
:1095D00088652A69012313622A69C2F834752A69E9
:1095E000C2F838452A6913602B6902E0D3F82421B8
:1095F0001AB9D3F84C21002AF8D00022C3F84C2124
:109600002B6902E0D3F824211AB9D3F85C21002A8F
:10961000F8D00022C3F85C212B6901225A612A6923
:10962000D2F80431002BFBD00021C2F804112B69C1
:10963000D3F8242112B1C3F824112B69D3F83C05C7
:109640002866C0B2F8BD00BF10B50446683084F883
:10965000B01008F03DFC0123637710BD70B50369BD
:1096600090F8B02000214177C3F8882503690126CE
:109670001E62036900F168050446C3F84455284694
:1096800008F038FC2369C3F8480523699E60236904
:1096900002E0D3F824211AB9D3F85021002AF8D0D7
:1096A0000022C3F85021284608F024FC236918BB87
:1096B0000022C3F86021236901225A612269D2F88D
:1096C0000431002BFBD00021C2F804112369D3F828
:1096D000240160B1C3F824112369D3F8C404C3F88A
:1096E000C404022803D0042814BF0420032070BD42
:1096F000D3F82421002ADBD1D3F86021002AF7D047
:10970000D6E700BF70B5294C6369D3F86421002AFD
:109710003AD1D3F86821E2B9D3F8042162B1227FAB
:109720000021C3F804113AB1D4F8B820D3F83C05AD
:1097300020660AB190476369D3F8242142B1002220
:10974000C3F82421D3F8D024C3F8D02401225A61CD
:1097500070BD0022C3F86821154822770123637782
:1097600008F0B6FBD4F8B43003B1984763691048E9
:10977000C3F844050023637708F0BCFB636901224A
:10978000C3F848055A63C7E7002204F12006C3F86E
:10979000642101253046257708F09AFB6369402251
:1097A000C3F83465C3F838251D63B2E7E03F0020F5
:1097B0004840002038B50E4C0E4A20464FF47A73CC
:1097C00040F8202B0025C4E9015308F069FB04F19F
:1097D000680008F065FB084A084B6577D2E9191262
:1097E000032020766176A276C4E9043338BD00BF39
:1097F000E03F002084650300BC68030000300040A7
:10980000704700BF10B5044608F04EFA204610BD60
:1098100038B50A4B04460D46442240F80C3B002163
:1098200009F01BFF0023A560237104F154010120FE
:1098300006F02EF82065204638BD00BFA86503005D
:1098400070B504460E46006D4FF0FF3106F0C6FAC3
:10985000257955B98EB1A660314604F10C0003F0AC
:1098600019FBB0FA80F56D0925710023206D1A46A9
:10987000194605F033FE284670BDA668002EF4D0C8
:10988000EAE700BF70B505464FF0FF31006D06F006
:10989000A5FA2B7905F10C06F3B100232B713046A4
:1098A00003F0FAFB044668B9A968304604F06CFB83
:1098B000044638B93046A96803F0ECFA044608B902
:1098C00001232B710023286D1A46194605F006FE68
:1098D000B4FA84F0400970BD3046A96804F054FB26
:1098E0000446EFE730B5044695B00D46006D4FF0E5
:1098F000FF3106F073FA294601AA04F10C0003F0C7
:1099000083FA002305461A46206D194605F0E6FD48
:10991000B5FA85F0400915B030BD00BF2DE9F04F14
:1099200083B00B7800AF2F2B78600CBF4C1C0C461B
:1099300005460E46006D4FF0FF3106F04FFA05F177
:109940000C084FF0000918E0ADEB000D8A456D469C
:109950008DF800900DF1010001DD09F07EFE314629
:109960005246284609F055FE2946404604F0D8FDE7
:1099700008B1113028D10134DD4620462F210AF0EC
:10998000EFFCA0EB060A0AF108020446EB4622F0BF
:10999000070000215246002CD6D13146404604F043
:1099A000BFFD78B1113014BF002401247A68002370
:1099B000106D19461A4605F091FD20460C37BD463C
:1099C000BDE8F08F0124F1E70024DD46EEE700BF9B
:1099D00038B504460D46006D4FF0FF3106F0FEF934
:1099E000294604F10C0004F0B9FF002305461A468D
:1099F000206D194605F072FDB5FA85F0400938BDB5
:109A000070B5036904460D46186D4FF0FF311646D8
:109A100006F0E4F9237D4BB1002522690023106D87
:109A200019461A4605F05AFD284670BD2069A169FD
:109A30002A4633460C3002F0CFFA20EAE075ECE714
:109A400070B50369044682B04FF0FF31186D06F01F
:109A5000C5F9257D45BB2069A1690C3003F0C8F923
:109A600002AA0646206902F8015D0123A1690C30B3
:109A700003F01CF900282069A169C8BF9DF80750B0
:109A8000324600F10C004FF00003D8BF4FF0FF3515
:109A900003F07CF922690023106D19461A4605F07F
:109AA0001DFD284602B070BD4FF0FF35F2E700BF44
:109AB00038B5036904464FF0FF31186D06F08EF992
:109AC000237D4BB1002522690023106D19461A46EB
:109AD00005F004FD284638BD2069A1690C3003F06B
:109AE00089F905462069A1690C3003F081F92D1A26
:109AF000E9E700BF10B5036904464FF0FF31186D68
:109B000006F06CF9237D23B92069A1690C3004F0BB
:109B10001BFE22690023106D19461A46BDE810404D
:109B200005F0DCBC70B50369044682B04FF0FF312C
:109B3000186D06F053F9257D55B122690023106D8B
:109B400019461A4605F0CAFC4FF0FF3002B070BD4E
:109B50002069A1690DF1070201230C3003F0A6F87A
:109B6000226906462B46106D29462A4605F0B6FCAA
:109B7000002ECCBF9DF807004FF0FF3002B070BD43
:109B800030B50368164A5B6883B093428DF80710BE
:109B90001ED1036904464FF0FF31186D06F01EF91F
:109BA000237D53B1002522690023106D19461A4602
:109BB00005F094FC284603B030BD2069A1690C3043
:109BC00001230DF1070202F007FA20EAE075EAE747
:109BD00001220DF1070198470546284603B030BD24
:109BE000019A02002DE9F0410446784D23614FF4BB
:109BF0007A70A0600020C4E90050C4E90600207516
:109C000084F8200094B00D46186D4FF0FF311746D0
:109C100006F0E4F8A169E9B12069237D0C30002B3E
:109C200054D002F0C5F9A66907F07AF90128304648
:109C300000F0918007F0A0FCE6690023A3613EB12B
:109C400007F06EF90128304600F0AE8007F094FC72
:109C50000023E361206901AA0C30294603F0D4F8FF
:109C600038BB9DF80430112B60D007F059F901285A
:109C70004FF02C006CD007F06DFCA0612669D8B1C4
:109C800001462A4606F10C0002F0E4F898B90123D7
:109C9000237528460AF08BFB461C07F041F9012882
:109CA00030467BD007F056FCE06129460AF065FBA0
:109CB0003FE0023017D02669306D00231A4619465E
:109CC00005F00CFC204614B0BDE8F08104F0B6FDB0
:109CD000A66907F025F9012830463FD007F04CFC73
:109CE0000023A361B6E7012FE5D107F019F9012898
:109CF0004FF038005ED007F02DFCA06126690028E7
:109D0000DAD0014640F2031306F10C002A4604F0B3
:109D100067FC07460028CED12069A1690C300223D8
:109D20003A4603F033F82669277503E0CFB1012FD7
:109D300037D026692F2128460AF056FB04F120036C
:109D400000B1451C2946184640220AF038FBB3E70B
:109D500009F02EFC91E709F033FC6DE709F030FCC7
:109D6000BEE74FF0010807F0DBF801284FF038009C
:109D70001DD007F0EFFBA061266900289CD00146AA
:109D8000434606F10C002A4604F02AFC2669002806
:109D900092D1012F11D000232375CBE709F008FCE5
:109DA00082E740F20318DEE709F00AFC50E709F009
:109DB000FFFBE0E709F0FCFB9FE70246022306F108
:109DC0000C00A16902F0E2FF2669E4E7B865030030
:109DD00070B5036904460D46186D4FF0FF31164605
:109DE00005F0FCFF237D4BB1002522690023106D97
:109DF00019461A4605F072FB284670BD2069A16914
:109E00002A4633460C3002F051FF0546EDE700BF0D
:109E100038B5036904460D46186D4FF0FF3105F063
:109E2000DDFF237D4BB1002522690023106D19460B
:109E30001A4605F053FB284638BD2069A1692A4619
:109E40000C3002F0A3FFC543ED0FEDE738B5036911
:109E500004464FF0FF31186D05F0C0FF237D4BB174
:109E6000002522690023106D19461A4605F036FBBD
:109E7000284638BD2069A1690C3002F0B9FF0546BB
:109E8000EFE700BF70B5036904464FF0FF31186D6E
:109E900005F0A4FFA169D1B12069237D0C30FBB18D
:109EA00002F086F8A56907F03BF80128284627D07C
:109EB00007F062FBE5690023A36135B107F030F8D4
:109EC0000128284619D007F057FB0023E3612269D7
:109ED0000023106D19461A46BDE8704005F0FEBA21
:109EE00004F0ACFCA56907F01BF8012828460AD04D
:109EF00007F042FB0023A361E9E709F061FBE4E717
:109F000009F05EFBD6E709F05BFBF3E78069003000
:109F100018BF0120704700BF2DE9F0478046006858
:109F20001646026A82B0B2420B9F4AD90C461D46C1
:109F30008FB92DE0B5FBF1F201FB1252D0F804907D
:109F400052B3AA1AA3682660626000913146C847DE
:109F5000F8B9D8F80000236841699E42EAD16368E5
:109F60009D42E7D3CA189542E4D2A2EB0509B94550
:109F7000A1680A9828BFB946EB1A19444A46BF1A85
:109F800009F047FB0A9B4B444D440A93002FE0D154
:109F9000002002B0BDE8F087B942D2D8B7FBF1FA91
:109FA00001FB1A7AA7EB0A0700970A9B2A4631465B
:109FB000C8470028EDD10A9B3B443D440A935746CD
:109FC000E4E7034B034A0448122109F075FA00BF85
:109FD00058660300D4650300786603002DE9F04F4E
:109FE00085B00392002B5AD088460168C9695C1E6F
:109FF000A1F108090E9BB4FBF9F50746B3FBF9F68E
:10A00000BDB3681E029209F0E7F9851CA4EB850533
:10A01000029AB5FBF9F56EBBB5424AD90DF10C0AAF
:10A020004FF004094FF0010B0AE0012A4BD93B68BD
:10A030001B6A9A4247D80BFA04F42D1BB54238D953
:10A04000AC1BB4FA84F495FAA5F3C4F11F04B3FA77
:10A0500083F39C4228BF1C46CDE900A9A3004146DA
:10A060003846FFF759FF039A0028DED005B0BDE857
:10A07000F08FF6B1701E029209F0AEF90E9B861CAD
:10A08000A3EB8606B6FBF9F6304609F0A5F90E9B60
:10A09000029A06FB1939A9EB80030E93BCE70F99CE
:10A0A0004FF0FF320A60109A1846136005B0BDE801
:10A0B000F08F0F9B1A60109B1A460E9B13600020B6
:10A0C00005B0BDE8F08F034B034A04484FF48F619D
:10A0D00009F0F2F9F4660300F46503007866030002
:10A0E0002DE9F04F0446D2E900038FB00026089016
:10A0F0000291099304F11409B3460DF1280A08AB43
:10A10000494653F826701023CDE900A33A460023B0
:10A110002046FFF701FF002839D1BBF1000F63D1C2
:10A120000B9B23F00043132B54D92268D26993422E
:10A1300050D80EAB4FF0FF3143F81C1D10221846CB
:10A140005146039304F048FD0B9B23F00042102A74
:10A1500025D0CDE904B610250DF11B081646DDF813
:10A160000CB004E0584604F037FDAE4215D0012390
:10A17000CDE900833A462B4649462046FFF7CCFE00
:10A180000122414615440028ECD0DDE904B610F167
:10A19000340F1FD00FB0BDE8F08FDDE904B6079B88
:10A1A000751CBBB905F001050DF1380C0CEB850CE5
:10A1B000029D03959AE80F006F605CF8187CAF6011
:10A1C0002F46BC461C351027CCF80C7085E80F00D4
:10A1D0004FF0010B7EB1BBF1000F14BF00206FF0F8
:10A1E00033000FB0BDE8F08F029A0A9BD2699B1A28
:10A1F000002B95DAEEE7012681E700BF2DE9F04F4D
:10A20000984603681B6A87B04345109EDDE911A795
:10A2100040F2D780002F4AD081468B461546DBF8A6
:10A22000003043454ED0013340F0C580D9F80000DE
:10A230008269B6FBF2F302FB1363002B3BD1BA42F7
:10A2400039D8B7FBF2F302FB13730393FB1A0093A5
:10A2500002938468534632464146A047002840F0A6
:10A26000A380029B002D00F09B80DBB15446371B7E
:10A270009A4408E014F8013B9DF817209A4240F0F8
:10A280009180A2450ED0012301930DF11703009395
:10A2900042463B1929464846FFF73EFE0028E9D0D2
:10A2A000C0F28280029B039F1E44002FB7D1002082
:10A2B00007B0BDE8F08FF31ACBE90083DBF800307C
:10A2C0004345B0D1DBF80420B242ACD8D9F8001035
:10A2D0008C691444B442A6D9A41BBC42DBF8080024
:10A2E00028BF3C46B21A10445146224609F091F963
:10A2F000D9F80000D0F818C02644B6FBFCF30CFBDC
:10A3000013633F1BA244002BCFD1DBF800104B1C82
:10A31000CBD0DBE90123CDF800C08468A04700283A
:10A3200042D1D9F80030DBF808009A696DB3DBE957
:10A33000001352B382181B1ACDF808B0CDF80C8068
:10A340001096044693460E46984607E014F8013BE3
:10A350009DF817209A4225D1A34528D001230193C7
:10A360000DF117030093324608EB040329464846D3
:10A37000FFF7D2FD0028E9D0DDE902B8109E13DB1B
:10A38000D9F80030DBF808009A69FF2109F065F977
:10A390004FF0FF33CBF80030002F7FF440AF86E75B
:10A3A0009A447FE76FF0330007B0BDE8F08FDDE936
:10A3B00002B8109EE4E7064B064A0748B72109F0A9
:10A3C0007BF8064B034A04489C2109F075F800BF4E
:10A3D0003C660300E46503007866030058660300EA
:10A3E0002DE9F04F90460268126A83B04245DDF8CD
:10A3F00030900D9E6CD91EB382460F461D463B68B9
:10A40000984527D001335DD1DAF800008269B5FBA9
:10A41000F2F302FB1353BBB9B24215D8B6FBF2F408
:10A4200002FB1464361B0096D0F808B04B462A464F
:10A430004146D84728B9B14435442646002EDED1DE
:10A44000002003B0BDE8F08FEB1AC7E900833B683A
:10A450009845D7D17968A942D4D8DAF80020926912
:10A460000A44AA42CED9541BB442B86828BF344625
:10A47000691A08442246494609F0CBF8DAF8000088
:10A4800082692544B5FBF2F302FB1353361BA1444A
:10A49000002BD3D139684B1CD0D0D7E901C300922F
:10A4A00084686246A0470028CBD1DAF80030B8684B
:10A4B0009A69FF2109F0D1F84FF0FF333B60002E7D
:10A4C0009DD1BDE7054B064A0648B72108F0F4FFC9
:10A4D000054B034A03489C2108F0EEFF3C6603004D
:10A4E000E465030078660300586603002DE9F04F29
:10A4F000934691B000240122CDE905315B46CBE9BA
:10A5000009429A468346DAF82830013300F00F8179
:10A510000AF1240251465846FFF7E2FD0790002851
:10A520007AD15246DAF80C30DA469346DBF820103E
:10A5300021F00042043A03F10C00824228BF0AF1E4
:10A54000140980F0AA80002980F2ED800AF1140934
:10A55000DBE909234FF000080A920B9347460AAB48
:10A56000494653F82860102301930CAB0093324600
:10A5700000235046FFF7D0FC00283FD12FB10C9BA1
:10A58000DBF81C209B1A002B65DB0D9B23F000439E
:10A59000132B60D9DAF80020D26993425BD810AB54
:10A5A0004FF0FF3143F81C1D102218460CA90293EE
:10A5B00004F012FB0D9B23F00042102A32D00397C7
:10A5C000CDF8108010240DF123051746DDF8088022
:10A5D00004E0404604F000FBA74221D00123CDE96E
:10A5E00000533246234649465046FFF795FC012268
:10A5F000294614440028ECD0DDE9037810F1340F2B
:10A6000029D05B46D3469A46831C40F09380DAF803
:10A61000243001337FF477AF079811B0BDE8F08F95
:10A62000DDE90378099B08F10104A3B90CAB10AD77
:10A630000FCB04F0010405EB8404102554F8184CEA
:10A64000CBF808400BF11C04CBF80460CBF80C509D
:10A6500084E80F000127B8F1000F1AD0002F5BD05B
:10A66000DBF82010DBF8182021F00043043B143203
:10A6700010201B2BCBF81820CBF80C000CD800298D
:10A68000FFF666AF5B46D3469A460346059A1360CB
:10A69000BDE74FF0010862E70346059DDBF80420A3
:10A6A000281D0C24CDE9000449465046FFF734FC30
:10A6B0000028A6D16B79A979EA79DBF80C0028602B
:10A6C00004330B4413440344CBF80C306A79AC795F
:10A6D000E879DBF818100432224402440A44CBF82B
:10A6E00018202A7902F07002202A7FF41FAF059803
:10A6F000069C81682268914208D0C0686468A042C4
:10A7000004D0A14202D082427FF410AF012307930C
:10A71000079811B0BDE8F08F6FF0330307930798E7
:10A7200011B0BDE8F08F5A46D3469246AEE70023FB
:10A73000079371E707906FE72DE9F04FA3B001236E
:10A740000691002417A90BAACDE90B438346FFF716
:10A75000C7FC079000287DD1209B01337AD0219B34
:10A76000013377D020AA17A95846FFF7B9FC002873
:10A770006FD11A9CDA461F9A22F00043043B04F181
:10A780000C018B4228BF0AF1140B80F09380002A41
:10A7900080F28B800AF1140BDDE9202300250D9255
:10A7A0000E93A8464FF010090DAB594653F825609B
:10A7B000CDF8049013AB0093324600235046FFF7C8
:10A7C000ABFB00283FD1B8F1000F04D0139B1E9AB9
:10A7D0009B1A002B57DB149B23F00043132B52D9F9
:10A7E000DAF80020D26993424DD822AB4FF0FF3106
:10A7F00043F8601D102213A91846039304F0ECF9E6
:10A80000149F27F00042102A2AD0CDE90485102495
:10A810000DF127071546DDF80C8004E0404604F0F2
:10A82000DBF9A5421AD00123CDE900733246234655
:10A8300059465046FFF770FB012239461444002860
:10A84000ECD0DDE9048510F1340F1CD0831CD34615
:10A8500082D00790079823B0BDE8F08FDDE904852A
:10A860000A9B6C1C7BB913AB0FCB22AF04F0010425
:10A8700007EB840407E90F0054F8543C1896CDE91F
:10A8800019394FF001089DB1B8F1000F41D01F995F
:10A890001D9A21F00043043B143210241B2B1D92FF
:10A8A0001A9407D80029FFF677AFD3460F9453E7E1
:10A8B000012579E710A80C25CDE90005189A234653
:10A8C00059465046FFF728FB0028BFD19DF841208C
:10A8D0009DF842509DF843001A9C1D999DF9403007
:10A8E0000F9404322A4402441444002B0A441A945C
:10A8F0001D92FFF640AF0822069911A808F07AFED3
:10A9000000287FF438AF01230793079823B0BDE8F0
:10A91000F08F6FF033030793079823B0BDE8F08FF3
:10A920002DE9F04F97B01C460C9340F62203824667
:10A930002468536010460892DAE90123D3460A944A
:10A940008260C3608A460A9DBF49284609F060FDBF
:10A950002B4603440446BC490993184609F015FDEB
:10A960000128079000F07281022800F07881099B8D
:10A97000079A9D18CDE90A550124B349284609F0E4
:10A9800047FD05442846B04909F0FFFC78B102288C
:10A9900002D001340544F0E72B782E2BF9D16B78E7
:10A9A0002E2BF6D1013CF5D1AB1C0A93CBE7099BCA
:10A9B0001878002800F088800C9A1360089A1379A0
:10A9C000222B40F05B8102F108031A46514658469B
:10A9D0000D93FFF785FB002876D15246DAF80C304C
:10A9E000DA469346DBF8201021F00042043A03F1E6
:10A9F0000C00824228BF0AF1140980F0A4800029CB
:10AA000080F294800AF1140912ABD0460393CA462F
:10AA1000DBE9092300255F4610921193A946AB4656
:10AA200010AB514653F82B5010230193039B009316
:10AA30002A4600234046FFF76FFA002841D1B9F1BA
:10AA4000000F04D0129BFA699B1A002B58DB139B52
:10AA500023F00043132B53D9D8F80020D269934236
:10AA60004ED816AB4FF0FF3143F81C1D102218468C
:10AA70000399049304F0B0F8139B23F00042102ACA
:10AA800027D0CDF81490CDF818B010240DF13B0666
:10AA90009146DDF810B004E0584604F09DF8A14559
:10AAA00015D00123CDE900632A462346514640468E
:10AAB000FFF732FA0122314614440028ECD0DDE9D8
:10AAC000059B10F1340F1BD017B0BDE8F08FDDE906
:10AAD000059B0F9B0BF1010493B9039B7D600FCB8A
:10AAE00004F0010416AE06EB8404102554F8184C4B
:10AAF000BC6007F11C04FD6084E80F004FF0010901
:10AB0000BBF1000F19D0BB46B9F1000F76D0396AFE
:10AB1000BA6921F00043043B143210201B2BBA61A8
:10AB2000F8600DD80029FFF673AF0346089A6FF05E
:10AB30000100136017B0BDE8F08F4FF0010B6FE715
:10AB4000D1460346C246089FDBF804200C20391D7D
:10AB5000CDE9001049465046FFF7DEF90028B3D191
:10AB60007B79BA79F879DBF80C403C600433134404
:10AB700003442344CBF80C307D79B879FE79DBF8B7
:10AB800018102A1D024432440A44CBF818203A799E
:10AB900002F07F01112902D022297FF423AF079907
:10ABA0008E427FF41FAF04342C440444DBF804606D
:10ABB00000295FD0099DCDF80CB012AB641B0127B2
:10ABC000DDF82CB0984607E015F8013B9DF84820C9
:10ABD0009A4216D15D4519D0CDE9008763193246F6
:10ABE00049465046FFF798F90028EDD0D346DDF8E6
:10ABF0000CA0FFF669AF089B1A790CE06FF03300E8
:10AC000062E7DDF80CB0DBF80C30EBE6089BD346CE
:10AC10001A79DDF80CA013067FF595AEDBF8043049
:10AC200001330BD0DBF80830013307D00D995846BB
:10AC3000FFF782FD002824D1089B1A79089B02F0B7
:10AC40007F021A717FE600BF206703002B5D2E2B69
:10AC50007FF48DAE099B079A13440A9373E6099B10
:10AC60001B782E2B7FF483AE099B5B782E2B7FF411
:10AC70007EAEEFE75B46D3469A46CCE76FF0130013
:10AC800022E7FFF621AF6FF001001DE72DE9F04F3D
:10AC90004468013493B000F08B80846801348246AC
:10ACA00000F0868090468946002101230A910AAA75
:10ACB00041460B93FFF714FA00287AD143460AF174
:10ACC000140BC8469946D9F82430581C70D0D9F8CE
:10ACD0002820511C6CD0D8F8001099426CD0D8F8BC
:10ACE0000400904268D0834266D0914264D0CDE99E
:10ACF0000C32002503950EAFCDF810800CAB5946F1
:10AD000053F825601023CDE90073324600235046E6
:10AD1000FFF702F9002840D1039B2BB10E9BD9F815
:10AD20001C209B1A002B3BDB0F9B23F00043132BB3
:10AD300036D9DAF80020D269934231D812AB4FF0FD
:10AD4000FF3143F8241D102218463946059303F0BD
:10AD500043FF0F9B23F00042102A33D00695CDF815
:10AD60001C9010240DF123081546DDF8149004E022
:10AD7000484603F031FFA54222D00123CDE90083EC
:10AD80003246234659465046FFF7C6F8012241464F
:10AD900014440028ECD0DDE9065910F1340F08D135
:10ADA00065B3DDE90338002B8DD16FF0330000E08F
:10ADB000002013B0BDE8F08F012013B0BDE8F08F84
:10ADC000DDE90659099B6C1C002BE9D197E80F00BF
:10ADD00004F001040DF1480C0CEB8404C9F8046084
:10ADE00054F8184CC9F80840102609F11C04C9F899
:10ADF0000C6084E80F0001230393D1E701257DE770
:10AE00002DE9F04F4FF0010BA1B081468A464FF07B
:10AE10000008D9E90C52D9F8384013E05109531C05
:10AE2000601ED9F83C60C9F83430C9F8380056F8CB
:10AE3000217002F01F010BFA01F1394200F071811B
:10AE400004461A469542E9D1002C00F01383D9F844
:10AE50000020D9F82C30D9F83C00D2E908121D4462
:10AE6000944228BF1446B5FBF1F301FB1355C9F812
:10AE70003480C9F83040D208C9F82C50002108F0BD
:10AE8000ECFBD9F804300133C3D0D9F808300133D2
:10AE9000BFD015AA01230592524609F11407CA46EC
:10AEA000CDF834800E9300249146DAF80060DAF889
:10AEB0002C20316ADAF830508A1A1444B4FBF1F0CD
:10AEC00001FB1040A84212D2DAF83C10440900F00D
:10AED0001F0351F824200BFA03F3134341F82430E5
:10AEE000316ADAF82C200E9BDAF830508A1A1A44AC
:10AEF000B2FBF1F301FB1322AA420BD25409DAF898
:10AF00003C0002F01F0250F824100BFA02F30B432E
:10AF100040F824300DAA05995046FFF7E1F80028C3
:10AF200040F0BA81CDF81C900C26B946189B12ACA3
:10AF30001CE0169ACDE9004649465046FEF7ECFF64
:10AF4000002840F0A9819DF849309DF84A209DF8DD
:10AF50004B001899043313449DF84820034402F031
:10AF600070020B44102A189300F089821D9A22F077
:10AF70000042043A03F10C019142DAD9DDE91E43A3
:10AF8000601C4F46CDE90D43DDF81C9001D0591CE3
:10AF90008BD14B46D1469A46D9F80C50002D3FF440
:10AFA00038AFCDF824A0AA46DAF81C30DA0340F115
:10AFB0009C81DAF81440002C00F09781D9F8001039
:10AFC000CD69013C083DB4FBF5F3069353B1581E1F
:10AFD000059108F001FA05990230A4EB8004B4FB56
:10AFE000F5F30693DAF810300593D9F82C400B6A84
:10AFF000D9F83000059A1A44141BB4FBF3F203FB92
:10B00000124383420BD25C09D9F83C0003F01F03C2
:10B0100050F824200BFA03F3134340F82430069B26
:10B02000002B00F0608103F00103C3F102030A6A00
:10B0300007939D00059B934280F012810FAF00247F
:10B0400008461A4620E0D9F81430059A46699A4213
:10B0500000F0CF82B4FBF6F2436806FB12429C4636
:10B06000002A00F0EC820599D9F81C30C9F81410B8
:10B07000A21AC9F8182000966646B047002840F08A
:10B080000B81D9F80000059ADAF82C309A42DAD10F
:10B09000DAF83020A242D6D883691344A342D2D929
:10B0A0001B1BDAF83410AB4228BF2B46A21A1144FE
:10B0B0001E461A463846AD1A08F0ABFA34443744F7
:10B0C000D9F80000002DDED1079B5D1E012D014641
:10B0D000036AD9E90B4019D10F9A121BD618B6FB97
:10B0E000F3F203FB1262824210D25409D9F83C00F9
:10B0F00002F01F0350F8242005FA03F3134340F82D
:10B100002430D9F82C400B6AD9F8300020AA02EB81
:10B110008505DDE90626921B069255F8442C05921A
:10B1200069E7D9F80000D9F82C10076A0A44AB4245
:10B13000B2FBF7F107FB112206921BD0590903F06D
:10B140001F0256F82110012707FA02F20A4211D015
:10B15000023C0AE0590903F01F0256F821100BFACD
:10B1600002F20A4204F1FF3404D00133AB42C9E9D0
:10B170000D34EFD1C368069998470346079038B15C
:10B1800013F1340F3FF443AE184621B0BDE8F08F01
:10B19000DAF82830D9F80000002B00F08180DAF8C6
:10B1A0002440036A09F114029C42089258D215AB5C
:10B1B0000593079F09F1200309933D46DDF81480AC
:10B1C00017E0D9F8143041699C424FD0B5FBF1F239
:10B1D00001FB1252002A54D0D9F81C300091AA1A4F
:10B1E000C9E9054246682146B047002854D1D9F83C
:10B1F0000000DAF82C309C42E3D1DAF83030AB4270
:10B20000DFD886691E44AE42DBD9DAF83410761BEB
:10B21000012E28BF0126EB1A324640461944354418
:10B22000B044C6F1010608F0F4F9002EDFD1012385
:10B230000293059BDDE90821CDE900734846069B92
:10B24000FEF7DCFF002849D1DAF82830D9F80000F1
:10B250000137BB4224D9DAF82440036A9C42ACD3BC
:10B26000AC4BAD4AAD48122108F026F9D9F8183098
:10B27000AB42ABD85E18AE42A8D9761BD9F81C10E9
:10B28000C6E70129A8D801230093214643462A4650
:10B290004468A0470028CAD0079021B0BDE8F08FCD
:10B2A0008269D9F82810DAF8340008F0B2F9D9E93F
:10B2B0000813D9F80020D9F828009269CAE90B13BD
:10B2C000FF2108F0CAF94FF0FF33C9F82030079882
:10B2D000069BCAF8243021B0BDE8F08F10F1340F7E
:10B2E0003FF495ADD8E7DAF81C309B0340F1B98004
:10B2F000DAF82040002C00F0B480D9F80010CD69B5
:10B30000013C083DB4FBF5F3069353B1581E05917B
:10B3100008F062F805990230A4EB8004B4FBF5F361
:10B320000693DAF824300593D9F82C400B6AD9F843
:10B330003000059A1A44141BB4FBF3F203FB1243CA
:10B3400083420BD25C09D9F83C0003F01F0350F88C
:10B3500024200BFA03F3134340F82430069B002B00
:10B360007FD003F00103C3F102030A6A07939D0033
:10B37000059B9342BFF474AF0FAF002408461A46F2
:10B3800020E0D9F81430059A46699A4200F04481C9
:10B39000B4FBF6F2436806FB12429C46002A00F01A
:10B3A00064810599D9F81C30C9F81410A21AC9F89B
:10B3B000182000966646B04700287FF46DAFD9F894
:10B3C0000000059ADAF82C309A42DAD1DAF8302007
:10B3D000A242D6D883691344A342D2D91B1BDAF800
:10B3E0003410AB4228BF2B46A21A11441E461A46FF
:10B3F0003846AD1A08F00DF934443744D9F8000046
:10B40000002DDED1079BD9F82C405D1E012D014691
:10B41000036AD9F8300019D10F9A121BD618B6FB5F
:10B42000F3F203FB1262824210D25409D9F83C00B5
:10B4300002F01F0350F8242005FA03F3134340F8E9
:10B440002430D9F82C400B6AD9F8300020AA02EB3E
:10B450008505DDE90626921B069255F8442C0592D7
:10B4600068E7DAF800A0BAF1000F7FF49DADDDF8CF
:10B4700024A0CEE46FF01B030793184685E6149CC6
:10B48000002C3FF454ADDAF80010CD69013C083DC2
:10B49000B4FBF5F3089353B1581E069107F09CFFD7
:10B4A0000699831CA4EB8303B3FBF5F30893139B6A
:10B4B0000693DAF82C500B6ADAF83040069ACDF889
:10B4C0002C9008461A44551BB5FBF3F203FB1253AC
:10B4D000A3420BD25C09DAF83C1003F01F0351F8C9
:10B4E00024200BFA03F3134341F82430089B002B6C
:10B4F00000F0E78003F00103C3F10203026A09933D
:10B500009C00069B9342BFF4ABAE0DF13C090025B5
:10B5100020E000BF58660300D4650300786603008E
:10B520004368B5FBF1F201FB12529C46002A00F081
:10B53000B280069FCAF81470AA1ADAF81C30CAF84A
:10B540001820009139466746B84700287FF4A4AE1A
:10B55000DAF80000DAF81430069A41699A42DFD12D
:10B56000DAF81830AB42DBD85A18AA42D8D9521BA5
:10B57000DAF81C10A242A5EB030328BF2246484676
:10B5800019441746A41A154408F043F8B944DAF8E8
:10B590000000002CDED1099BDAF82C50DAF830409C
:10B5A000591E0129036A19D10F9A521B1A44B2FB82
:10B5B000F3F703FB1722A24210D2DAF83C505709E6
:10B5C00002F01F0355F8274001FA03F3234345F81F
:10B5D0002730DAF82C50036ADAF8304020AA02EB60
:10B5E0008101DDE90827D21B089251F8442C06920C
:10B5F00068E7D9F81830A3423FF62CAD9A19A24259
:10B600007FF628AD121BD9F81C10AA4228BF2A4683
:10B61000E31A164619444DE5D9F81830A3423FF60F
:10B62000B7AE9A19A2427FF6B3AE121BD9F81C101E
:10B63000AA4228BF2A46E31A16461944D8E6B5425C
:10B64000FFF411ADB5FBF6F306FB1353ED1A0893A7
:10B6500000953B46224605996646B04700287FF490
:10B660001BAE2F442C44089D2AE5B542FFF499AE49
:10B67000B5FBF6F306FB1353ED1A089300953B4612
:10B68000224605996646B04700287FF405AE2F4450
:10B690002C44089DB2E68C42FFF44BAFB4FBF1F7AB
:10B6A00001FB1743E41A0A9300944B462A46069975
:10B6B0006746B84700287FF4EFADA14425440A9CB3
:10B6C00065E7DDF82C9031E42DE9F04FD0E90C630B
:10B6D000A1B04FF0010901F1040801F10C02044688
:10B6E0000392CA460491C3464FF000082746B96B3F
:10B6F0000FE05A090139581CFD6BB963786355F89E
:10B70000224003F01F0209FA02F2224200F0658192
:10B7100003469E42EDD1002900F0BA813A68FB6AE7
:10B72000D2E908021E44914228BF1146B6FBF0F34D
:10B7300000FB13663963C7F83480D208FE6200212B
:10B74000F86B07F08AFF7B68013300F09881BB68D3
:10B75000013300F09481CDE90D8A07F11406CDF88C
:10B7600014B001230024B3463E68FA6A306A3D6B88
:10B77000821A1444B4FBF0F100FB1141A9420FD22C
:10B78000F86B4C0901F01F0350F8242009FA03F369
:10B79000134340F82430FA6A306A0E9B3D6B821ADC
:10B7A0001A44B2FBF0F300FB1323AB420AD2580950
:10B7B000F96B03F01F0351F8202009FA03F3134338
:10B7C00041F820300DAA15A93846FEF789FC00285B
:10B7D00040F050815B460C26BB461F46189B12ACBE
:10B7E0001CE0169ACDE9004639465846FEF794FB10
:10B7F000002840F03F819DF849309DF84A209DF88F
:10B800004B001899043313449DF84820034402F078
:10B8100070020B44102A189300F03D811D9A22F00B
:10B820000042043A03F10C019142DAD93B465F46EB
:10B830009B46DDE91E43601CCDE90D4301D0591C38
:10B8400092D1FD68DDF814B0002D00F01881CDF81C
:10B8500028B0AB460CE09B0304D5DBF82040002C5D
:10B8600040F0F681DBF800B0BBF1000F00F005817D
:10B87000DBF81C30DA03EED5DBF81440002CEAD0FC
:10B880003B68DD69013C083DB4FBF5F2079252B11B
:10B89000501E059307F0A0FD0230A4EB8004B4FB1A
:10B8A000F5F30793059BDBF810200592FC6A1A6AF2
:10B8B000386B0599CDF818B011440C1BB4FBF2F1AC
:10B8C00002FB114282420AD25409F86B02F01F02B5
:10B8D00050F8241009FA02F20A4340F82420079A8B
:10B8E000002A00F0A28202F00102C2F10202196AEB
:10B8F00008929500059A8A4280F09F820DF13C0BD8
:10B900000024069A0599D26A914222D07A69059854
:10B910005969904200F07181B4FBF1F2586801FB63
:10B9200012428446002A00F07B81FE690598786106
:10B93000A21ABA6118460091334605996646B04787
:10B94000002840F09780069A0599D26A3B68914298
:10B95000DCD1069A106BA042D8D89A690244A24260
:10B96000D4D90993069B121B596BAA4228BF2A46B9
:10B97000201A164601445846AD1A07F04AFE099BA4
:10B980003444B344002DBCD1089A551E012DD7E98B
:10B990000B401A6A16D10F99091B1144B1FBF2F63C
:10B9A00002FB161181420DD2FC6B4E0901F01F0201
:10B9B00054F8260005FA02F2024344F82620D7E99B
:10B9C0000B401A6A20A901EB8505DDE90716891BE2
:10B9D000079155F8441C05916EE73968FA6A096ABF
:10B9E0001344B3FBF1F201FB12334BF8043BD7E9EC
:10B9F0000C63B3423C461BD0590903F01F0255F8B3
:10BA000021100AFA02F20A4212D0B86B01380AE099
:10BA1000590903F01F0255F8211009FA02F20A42EF
:10BA200000F1FF3004D00133B342C4E90D30EFD14F
:10BA3000039A5A457FF458AEDDF810B004210BF19B
:10BA40001C03DBF804202046CDE90031002304F17B
:10BA50001401FEF761FAA8B9DBF81C304FF0FF3291
:10BA6000CBE90922142001331021CBE90730CBF8B0
:10BA70000C10002021B0BDE8F08FDDF828B0D7E928
:10BA80000C6334E610F1340FE6D021B0BDE8F08F3E
:10BA90006FF01B00EEE7149C002C3FF4A0AEDBF827
:10BAA0000010CD69013C083DB4FBF5F3089353B198
:10BAB000581E069107F090FC0699831CA4EB8303A3
:10BAC000B3FBF5F30893139B0693DBF82C500B6A3A
:10BAD000DBF83040069A0B9708461A44551BB5FB15
